{
	"data": {
		"bytecode": {
			"linkReferences": {},
			"object": "608060405234801561001057600080fd5b50610c1b806100206000396000f3fe608060405234801561001057600080fd5b50600436106100365760003560e01c80631dda65411461003b578063f39f303514610045575b600080fd5b610043610075565b005b61005f600480360381019061005a919061018f565b610108565b60405161006c919061023b565b60405180910390f35b600060405161008390610147565b604051809103906000f08015801561009f573d6000803e3d6000fd5b5090506000819080600181540180825580915050600190039060005260206000200160009091909190916101000a81548173ffffffffffffffffffffffffffffffffffffffff021916908373ffffffffffffffffffffffffffffffffffffffff16021790555050565b6000818154811061011857600080fd5b906000526020600020016000915054906101000a900473ffffffffffffffffffffffffffffffffffffffff1681565b61098f8061025783390190565b600080fd5b6000819050919050565b61016c81610159565b811461017757600080fd5b50565b60008135905061018981610163565b92915050565b6000602082840312156101a5576101a4610154565b5b60006101b38482850161017a565b91505092915050565b600073ffffffffffffffffffffffffffffffffffffffff82169050919050565b6000819050919050565b60006102016101fc6101f7846101bc565b6101dc565b6101bc565b9050919050565b6000610213826101e6565b9050919050565b600061022582610208565b9050919050565b6102358161021a565b82525050565b6000602082019050610250600083018461022c565b9291505056fe6080604052600c60005534801561001557600080fd5b5061096a806100256000396000f3fe608060405234801561001057600080fd5b50600436106100625760003560e01c80632ebce631146100675780633bc035d21461009857806369404ebd146100b65780636f760f41146100d2578063a6b7fc5b146100ee578063b963a1b81461010c575b600080fd5b610081600480360381019061007c9190610312565b61013c565b60405161008f9291906103de565b60405180910390f35b6100a06101f8565b6040516100ad919061040e565b60405180910390f35b6100d060048036038101906100cb9190610312565b6101fe565b005b6100ec60048036038101906100e7919061055e565b610208565b005b6100f6610291565b604051610103919061040e565b60405180910390f35b610126600480360381019061012191906105ba565b61029a565b604051610133919061040e565b60405180910390f35b6001818154811061014c57600080fd5b906000526020600020906002020160009150905080600001549080600101805461017590610632565b80601f01602080910402602001604051908101604052809291908181526020018280546101a190610632565b80156101ee5780601f106101c3576101008083540402835291602001916101ee565b820191906000526020600020905b8154815290600101906020018083116101d157829003601f168201915b5050505050905082565b60005481565b8060008190555050565b60016040518060400160405280838152602001848152509080600181540180825580915050600190039060005260206000209060020201600090919091909150600082015181600001556020820151816001019081610267919061080f565b5050508060028360405161027b919061091d565b9081526020016040518091039020819055505050565b60008054905090565b6002818051602081018201805184825260208301602085012081835280955050505050506000915090505481565b6000604051905090565b600080fd5b600080fd5b6000819050919050565b6102ef816102dc565b81146102fa57600080fd5b50565b60008135905061030c816102e6565b92915050565b600060208284031215610328576103276102d2565b5b6000610336848285016102fd565b91505092915050565b610348816102dc565b82525050565b600081519050919050565b600082825260208201905092915050565b60005b8381101561038857808201518184015260208101905061036d565b60008484015250505050565b6000601f19601f8301169050919050565b60006103b08261034e565b6103ba8185610359565b93506103ca81856020860161036a565b6103d381610394565b840191505092915050565b60006040820190506103f3600083018561033f565b818103602083015261040581846103a5565b90509392505050565b6000602082019050610423600083018461033f565b92915050565b600080fd5b600080fd5b7f4e487b7100000000000000000000000000000000000000000000000000000000600052604160045260246000fd5b61046b82610394565b810181811067ffffffffffffffff8211171561048a57610489610433565b5b80604052505050565b600061049d6102c8565b90506104a98282610462565b919050565b600067ffffffffffffffff8211156104c9576104c8610433565b5b6104d282610394565b9050602081019050919050565b82818337600083830152505050565b60006105016104fc846104ae565b610493565b90508281526020810184848401111561051d5761051c61042e565b5b6105288482856104df565b509392505050565b600082601f83011261054557610544610429565b5b81356105558482602086016104ee565b91505092915050565b60008060408385031215610575576105746102d2565b5b600083013567ffffffffffffffff811115610593576105926102d7565b5b61059f85828601610530565b92505060206105b0858286016102fd565b9150509250929050565b6000602082840312156105d0576105cf6102d2565b5b600082013567ffffffffffffffff8111156105ee576105ed6102d7565b5b6105fa84828501610530565b91505092915050565b7f4e487b7100000000000000000000000000000000000000000000000000000000600052602260045260246000fd5b6000600282049050600182168061064a57607f821691505b60208210810361065d5761065c610603565b5b50919050565b60008190508160005260206000209050919050565b60006020601f8301049050919050565b600082821b905092915050565b6000600883026106c57fffffffffffffffffffffffffffffffffffffffffffffffffffffffffffffffff82610688565b6106cf8683610688565b95508019841693508086168417925050509392505050565b6000819050919050565b600061070c610707610702846102dc565b6106e7565b6102dc565b9050919050565b6000819050919050565b610726836106f1565b61073a61073282610713565b848454610695565b825550505050565b600090565b61074f610742565b61075a81848461071d565b505050565b5b8181101561077e57610773600082610747565b600181019050610760565b5050565b601f8211156107c35761079481610663565b61079d84610678565b810160208510156107ac578190505b6107c06107b885610678565b83018261075f565b50505b505050565b600082821c905092915050565b60006107e6600019846008026107c8565b1980831691505092915050565b60006107ff83836107d5565b9150826002028217905092915050565b6108188261034e565b67ffffffffffffffff81111561083157610830610433565b5b61083b8254610632565b610846828285610782565b600060209050601f8311600181146108795760008415610867578287015190505b61087185826107f3565b8655506108d9565b601f19841661088786610663565b60005b828110156108af5784890151825560018201915060208501945060208101905061088a565b868310156108cc57848901516108c8601f8916826107d5565b8355505b6001600288020188555050505b505050505050565b600081905092915050565b60006108f78261034e565b61090181856108e1565b935061091181856020860161036a565b80840191505092915050565b600061092982846108ec565b91508190509291505056fea2646970667358221220fe3f3cff5a7116452a7efcb4bc3de46d033f6529ceb2d8924a86e4569e2f135764736f6c63430008120033a2646970667358221220d6ee7532a7a341bc45b2cd2cef4f0119020ee501f45de89f9c680f571e06e7df64736f6c63430008120033",
			"opcodes": "PUSH1 0x80 PUSH1 0x40 MSTORE CALLVALUE DUP1 ISZERO PUSH2 0x10 JUMPI PUSH1 0x0 DUP1 REVERT JUMPDEST POP PUSH2 0xC1B DUP1 PUSH2 0x20 PUSH1 0x0 CODECOPY PUSH1 0x0 RETURN INVALID PUSH1 0x80 PUSH1 0x40 MSTORE CALLVALUE DUP1 ISZERO PUSH2 0x10 JUMPI PUSH1 0x0 DUP1 REVERT JUMPDEST POP PUSH1 0x4 CALLDATASIZE LT PUSH2 0x36 JUMPI PUSH1 0x0 CALLDATALOAD PUSH1 0xE0 SHR DUP1 PUSH4 0x1DDA6541 EQ PUSH2 0x3B JUMPI DUP1 PUSH4 0xF39F3035 EQ PUSH2 0x45 JUMPI JUMPDEST PUSH1 0x0 DUP1 REVERT JUMPDEST PUSH2 0x43 PUSH2 0x75 JUMP JUMPDEST STOP JUMPDEST PUSH2 0x5F PUSH1 0x4 DUP1 CALLDATASIZE SUB DUP2 ADD SWAP1 PUSH2 0x5A SWAP2 SWAP1 PUSH2 0x18F JUMP JUMPDEST PUSH2 0x108 JUMP JUMPDEST PUSH1 0x40 MLOAD PUSH2 0x6C SWAP2 SWAP1 PUSH2 0x23B JUMP JUMPDEST PUSH1 0x40 MLOAD DUP1 SWAP2 SUB SWAP1 RETURN JUMPDEST PUSH1 0x0 PUSH1 0x40 MLOAD PUSH2 0x83 SWAP1 PUSH2 0x147 JUMP JUMPDEST PUSH1 0x40 MLOAD DUP1 SWAP2 SUB SWAP1 PUSH1 0x0 CREATE DUP1 ISZERO DUP1 ISZERO PUSH2 0x9F JUMPI RETURNDATASIZE PUSH1 0x0 DUP1 RETURNDATACOPY RETURNDATASIZE PUSH1 0x0 REVERT JUMPDEST POP SWAP1 POP PUSH1 0x0 DUP2 SWAP1 DUP1 PUSH1 0x1 DUP2 SLOAD ADD DUP1 DUP3 SSTORE DUP1 SWAP2 POP POP PUSH1 0x1 SWAP1 SUB SWAP1 PUSH1 0x0 MSTORE PUSH1 0x20 PUSH1 0x0 KECCAK256 ADD PUSH1 0x0 SWAP1 SWAP2 SWAP1 SWAP2 SWAP1 SWAP2 PUSH2 0x100 EXP DUP2 SLOAD DUP2 PUSH20 0xFFFFFFFFFFFFFFFFFFFFFFFFFFFFFFFFFFFFFFFF MUL NOT AND SWAP1 DUP4 PUSH20 0xFFFFFFFFFFFFFFFFFFFFFFFFFFFFFFFFFFFFFFFF AND MUL OR SWAP1 SSTORE POP POP JUMP JUMPDEST PUSH1 0x0 DUP2 DUP2 SLOAD DUP2 LT PUSH2 0x118 JUMPI PUSH1 0x0 DUP1 REVERT JUMPDEST SWAP1 PUSH1 0x0 MSTORE PUSH1 0x20 PUSH1 0x0 KECCAK256 ADD PUSH1 0x0 SWAP2 POP SLOAD SWAP1 PUSH2 0x100 EXP SWAP1 DIV PUSH20 0xFFFFFFFFFFFFFFFFFFFFFFFFFFFFFFFFFFFFFFFF AND DUP2 JUMP JUMPDEST PUSH2 0x98F DUP1 PUSH2 0x257 DUP4 CODECOPY ADD SWAP1 JUMP JUMPDEST PUSH1 0x0 DUP1 REVERT JUMPDEST PUSH1 0x0 DUP2 SWAP1 POP SWAP2 SWAP1 POP JUMP JUMPDEST PUSH2 0x16C DUP2 PUSH2 0x159 JUMP JUMPDEST DUP2 EQ PUSH2 0x177 JUMPI PUSH1 0x0 DUP1 REVERT JUMPDEST POP JUMP JUMPDEST PUSH1 0x0 DUP2 CALLDATALOAD SWAP1 POP PUSH2 0x189 DUP2 PUSH2 0x163 JUMP JUMPDEST SWAP3 SWAP2 POP POP JUMP JUMPDEST PUSH1 0x0 PUSH1 0x20 DUP3 DUP5 SUB SLT ISZERO PUSH2 0x1A5 JUMPI PUSH2 0x1A4 PUSH2 0x154 JUMP JUMPDEST JUMPDEST PUSH1 0x0 PUSH2 0x1B3 DUP5 DUP3 DUP6 ADD PUSH2 0x17A JUMP JUMPDEST SWAP2 POP POP SWAP3 SWAP2 POP POP JUMP JUMPDEST PUSH1 0x0 PUSH20 0xFFFFFFFFFFFFFFFFFFFFFFFFFFFFFFFFFFFFFFFF DUP3 AND SWAP1 POP SWAP2 SWAP1 POP JUMP JUMPDEST PUSH1 0x0 DUP2 SWAP1 POP SWAP2 SWAP1 POP JUMP JUMPDEST PUSH1 0x0 PUSH2 0x201 PUSH2 0x1FC PUSH2 0x1F7 DUP5 PUSH2 0x1BC JUMP JUMPDEST PUSH2 0x1DC JUMP JUMPDEST PUSH2 0x1BC JUMP JUMPDEST SWAP1 POP SWAP2 SWAP1 POP JUMP JUMPDEST PUSH1 0x0 PUSH2 0x213 DUP3 PUSH2 0x1E6 JUMP JUMPDEST SWAP1 POP SWAP2 SWAP1 POP JUMP JUMPDEST PUSH1 0x0 PUSH2 0x225 DUP3 PUSH2 0x208 JUMP JUMPDEST SWAP1 POP SWAP2 SWAP1 POP JUMP JUMPDEST PUSH2 0x235 DUP2 PUSH2 0x21A JUMP JUMPDEST DUP3 MSTORE POP POP JUMP JUMPDEST PUSH1 0x0 PUSH1 0x20 DUP3 ADD SWAP1 POP PUSH2 0x250 PUSH1 0x0 DUP4 ADD DUP5 PUSH2 0x22C JUMP JUMPDEST SWAP3 SWAP2 POP POP JUMP INVALID PUSH1 0x80 PUSH1 0x40 MSTORE PUSH1 0xC PUSH1 0x0 SSTORE CALLVALUE DUP1 ISZERO PUSH2 0x15 JUMPI PUSH1 0x0 DUP1 REVERT JUMPDEST POP PUSH2 0x96A DUP1 PUSH2 0x25 PUSH1 0x0 CODECOPY PUSH1 0x0 RETURN INVALID PUSH1 0x80 PUSH1 0x40 MSTORE CALLVALUE DUP1 ISZERO PUSH2 0x10 JUMPI PUSH1 0x0 DUP1 REVERT JUMPDEST POP PUSH1 0x4 CALLDATASIZE LT PUSH2 0x62 JUMPI PUSH1 0x0 CALLDATALOAD PUSH1 0xE0 SHR DUP1 PUSH4 0x2EBCE631 EQ PUSH2 0x67 JUMPI DUP1 PUSH4 0x3BC035D2 EQ PUSH2 0x98 JUMPI DUP1 PUSH4 0x69404EBD EQ PUSH2 0xB6 JUMPI DUP1 PUSH4 0x6F760F41 EQ PUSH2 0xD2 JUMPI DUP1 PUSH4 0xA6B7FC5B EQ PUSH2 0xEE JUMPI DUP1 PUSH4 0xB963A1B8 EQ PUSH2 0x10C JUMPI JUMPDEST PUSH1 0x0 DUP1 REVERT JUMPDEST PUSH2 0x81 PUSH1 0x4 DUP1 CALLDATASIZE SUB DUP2 ADD SWAP1 PUSH2 0x7C SWAP2 SWAP1 PUSH2 0x312 JUMP JUMPDEST PUSH2 0x13C JUMP JUMPDEST PUSH1 0x40 MLOAD PUSH2 0x8F SWAP3 SWAP2 SWAP1 PUSH2 0x3DE JUMP JUMPDEST PUSH1 0x40 MLOAD DUP1 SWAP2 SUB SWAP1 RETURN JUMPDEST PUSH2 0xA0 PUSH2 0x1F8 JUMP JUMPDEST PUSH1 0x40 MLOAD PUSH2 0xAD SWAP2 SWAP1 PUSH2 0x40E JUMP JUMPDEST PUSH1 0x40 MLOAD DUP1 SWAP2 SUB SWAP1 RETURN JUMPDEST PUSH2 0xD0 PUSH1 0x4 DUP1 CALLDATASIZE SUB DUP2 ADD SWAP1 PUSH2 0xCB SWAP2 SWAP1 PUSH2 0x312 JUMP JUMPDEST PUSH2 0x1FE JUMP JUMPDEST STOP JUMPDEST PUSH2 0xEC PUSH1 0x4 DUP1 CALLDATASIZE SUB DUP2 ADD SWAP1 PUSH2 0xE7 SWAP2 SWAP1 PUSH2 0x55E JUMP JUMPDEST PUSH2 0x208 JUMP JUMPDEST STOP JUMPDEST PUSH2 0xF6 PUSH2 0x291 JUMP JUMPDEST PUSH1 0x40 MLOAD PUSH2 0x103 SWAP2 SWAP1 PUSH2 0x40E JUMP JUMPDEST PUSH1 0x40 MLOAD DUP1 SWAP2 SUB SWAP1 RETURN JUMPDEST PUSH2 0x126 PUSH1 0x4 DUP1 CALLDATASIZE SUB DUP2 ADD SWAP1 PUSH2 0x121 SWAP2 SWAP1 PUSH2 0x5BA JUMP JUMPDEST PUSH2 0x29A JUMP JUMPDEST PUSH1 0x40 MLOAD PUSH2 0x133 SWAP2 SWAP1 PUSH2 0x40E JUMP JUMPDEST PUSH1 0x40 MLOAD DUP1 SWAP2 SUB SWAP1 RETURN JUMPDEST PUSH1 0x1 DUP2 DUP2 SLOAD DUP2 LT PUSH2 0x14C JUMPI PUSH1 0x0 DUP1 REVERT JUMPDEST SWAP1 PUSH1 0x0 MSTORE PUSH1 0x20 PUSH1 0x0 KECCAK256 SWAP1 PUSH1 0x2 MUL ADD PUSH1 0x0 SWAP2 POP SWAP1 POP DUP1 PUSH1 0x0 ADD SLOAD SWAP1 DUP1 PUSH1 0x1 ADD DUP1 SLOAD PUSH2 0x175 SWAP1 PUSH2 0x632 JUMP JUMPDEST DUP1 PUSH1 0x1F ADD PUSH1 0x20 DUP1 SWAP2 DIV MUL PUSH1 0x20 ADD PUSH1 0x40 MLOAD SWAP1 DUP2 ADD PUSH1 0x40 MSTORE DUP1 SWAP3 SWAP2 SWAP1 DUP2 DUP2 MSTORE PUSH1 0x20 ADD DUP3 DUP1 SLOAD PUSH2 0x1A1 SWAP1 PUSH2 0x632 JUMP JUMPDEST DUP1 ISZERO PUSH2 0x1EE JUMPI DUP1 PUSH1 0x1F LT PUSH2 0x1C3 JUMPI PUSH2 0x100 DUP1 DUP4 SLOAD DIV MUL DUP4 MSTORE SWAP2 PUSH1 0x20 ADD SWAP2 PUSH2 0x1EE JUMP JUMPDEST DUP3 ADD SWAP2 SWAP1 PUSH1 0x0 MSTORE PUSH1 0x20 PUSH1 0x0 KECCAK256 SWAP1 JUMPDEST DUP2 SLOAD DUP2 MSTORE SWAP1 PUSH1 0x1 ADD SWAP1 PUSH1 0x20 ADD DUP1 DUP4 GT PUSH2 0x1D1 JUMPI DUP3 SWAP1 SUB PUSH1 0x1F AND DUP3 ADD SWAP2 JUMPDEST POP POP POP POP POP SWAP1 POP DUP3 JUMP JUMPDEST PUSH1 0x0 SLOAD DUP2 JUMP JUMPDEST DUP1 PUSH1 0x0 DUP2 SWAP1 SSTORE POP POP JUMP JUMPDEST PUSH1 0x1 PUSH1 0x40 MLOAD DUP1 PUSH1 0x40 ADD PUSH1 0x40 MSTORE DUP1 DUP4 DUP2 MSTORE PUSH1 0x20 ADD DUP5 DUP2 MSTORE POP SWAP1 DUP1 PUSH1 0x1 DUP2 SLOAD ADD DUP1 DUP3 SSTORE DUP1 SWAP2 POP POP PUSH1 0x1 SWAP1 SUB SWAP1 PUSH1 0x0 MSTORE PUSH1 0x20 PUSH1 0x0 KECCAK256 SWAP1 PUSH1 0x2 MUL ADD PUSH1 0x0 SWAP1 SWAP2 SWAP1 SWAP2 SWAP1 SWAP2 POP PUSH1 0x0 DUP3 ADD MLOAD DUP2 PUSH1 0x0 ADD SSTORE PUSH1 0x20 DUP3 ADD MLOAD DUP2 PUSH1 0x1 ADD SWAP1 DUP2 PUSH2 0x267 SWAP2 SWAP1 PUSH2 0x80F JUMP JUMPDEST POP POP POP DUP1 PUSH1 0x2 DUP4 PUSH1 0x40 MLOAD PUSH2 0x27B SWAP2 SWAP1 PUSH2 0x91D JUMP JUMPDEST SWAP1 DUP2 MSTORE PUSH1 0x20 ADD PUSH1 0x40 MLOAD DUP1 SWAP2 SUB SWAP1 KECCAK256 DUP2 SWAP1 SSTORE POP POP POP JUMP JUMPDEST PUSH1 0x0 DUP1 SLOAD SWAP1 POP SWAP1 JUMP JUMPDEST PUSH1 0x2 DUP2 DUP1 MLOAD PUSH1 0x20 DUP2 ADD DUP3 ADD DUP1 MLOAD DUP5 DUP3 MSTORE PUSH1 0x20 DUP4 ADD PUSH1 0x20 DUP6 ADD KECCAK256 DUP2 DUP4 MSTORE DUP1 SWAP6 POP POP POP POP POP POP PUSH1 0x0 SWAP2 POP SWAP1 POP SLOAD DUP2 JUMP JUMPDEST PUSH1 0x0 PUSH1 0x40 MLOAD SWAP1 POP SWAP1 JUMP JUMPDEST PUSH1 0x0 DUP1 REVERT JUMPDEST PUSH1 0x0 DUP1 REVERT JUMPDEST PUSH1 0x0 DUP2 SWAP1 POP SWAP2 SWAP1 POP JUMP JUMPDEST PUSH2 0x2EF DUP2 PUSH2 0x2DC JUMP JUMPDEST DUP2 EQ PUSH2 0x2FA JUMPI PUSH1 0x0 DUP1 REVERT JUMPDEST POP JUMP JUMPDEST PUSH1 0x0 DUP2 CALLDATALOAD SWAP1 POP PUSH2 0x30C DUP2 PUSH2 0x2E6 JUMP JUMPDEST SWAP3 SWAP2 POP POP JUMP JUMPDEST PUSH1 0x0 PUSH1 0x20 DUP3 DUP5 SUB SLT ISZERO PUSH2 0x328 JUMPI PUSH2 0x327 PUSH2 0x2D2 JUMP JUMPDEST JUMPDEST PUSH1 0x0 PUSH2 0x336 DUP5 DUP3 DUP6 ADD PUSH2 0x2FD JUMP JUMPDEST SWAP2 POP POP SWAP3 SWAP2 POP POP JUMP JUMPDEST PUSH2 0x348 DUP2 PUSH2 0x2DC JUMP JUMPDEST DUP3 MSTORE POP POP JUMP JUMPDEST PUSH1 0x0 DUP2 MLOAD SWAP1 POP SWAP2 SWAP1 POP JUMP JUMPDEST PUSH1 0x0 DUP3 DUP3 MSTORE PUSH1 0x20 DUP3 ADD SWAP1 POP SWAP3 SWAP2 POP POP JUMP JUMPDEST PUSH1 0x0 JUMPDEST DUP4 DUP2 LT ISZERO PUSH2 0x388 JUMPI DUP1 DUP3 ADD MLOAD DUP2 DUP5 ADD MSTORE PUSH1 0x20 DUP2 ADD SWAP1 POP PUSH2 0x36D JUMP JUMPDEST PUSH1 0x0 DUP5 DUP5 ADD MSTORE POP POP POP POP JUMP JUMPDEST PUSH1 0x0 PUSH1 0x1F NOT PUSH1 0x1F DUP4 ADD AND SWAP1 POP SWAP2 SWAP1 POP JUMP JUMPDEST PUSH1 0x0 PUSH2 0x3B0 DUP3 PUSH2 0x34E JUMP JUMPDEST PUSH2 0x3BA DUP2 DUP6 PUSH2 0x359 JUMP JUMPDEST SWAP4 POP PUSH2 0x3CA DUP2 DUP6 PUSH1 0x20 DUP7 ADD PUSH2 0x36A JUMP JUMPDEST PUSH2 0x3D3 DUP2 PUSH2 0x394 JUMP JUMPDEST DUP5 ADD SWAP2 POP POP SWAP3 SWAP2 POP POP JUMP JUMPDEST PUSH1 0x0 PUSH1 0x40 DUP3 ADD SWAP1 POP PUSH2 0x3F3 PUSH1 0x0 DUP4 ADD DUP6 PUSH2 0x33F JUMP JUMPDEST DUP2 DUP2 SUB PUSH1 0x20 DUP4 ADD MSTORE PUSH2 0x405 DUP2 DUP5 PUSH2 0x3A5 JUMP JUMPDEST SWAP1 POP SWAP4 SWAP3 POP POP POP JUMP JUMPDEST PUSH1 0x0 PUSH1 0x20 DUP3 ADD SWAP1 POP PUSH2 0x423 PUSH1 0x0 DUP4 ADD DUP5 PUSH2 0x33F JUMP JUMPDEST SWAP3 SWAP2 POP POP JUMP JUMPDEST PUSH1 0x0 DUP1 REVERT JUMPDEST PUSH1 0x0 DUP1 REVERT JUMPDEST PUSH32 0x4E487B7100000000000000000000000000000000000000000000000000000000 PUSH1 0x0 MSTORE PUSH1 0x41 PUSH1 0x4 MSTORE PUSH1 0x24 PUSH1 0x0 REVERT JUMPDEST PUSH2 0x46B DUP3 PUSH2 0x394 JUMP JUMPDEST DUP2 ADD DUP2 DUP2 LT PUSH8 0xFFFFFFFFFFFFFFFF DUP3 GT OR ISZERO PUSH2 0x48A JUMPI PUSH2 0x489 PUSH2 0x433 JUMP JUMPDEST JUMPDEST DUP1 PUSH1 0x40 MSTORE POP POP POP JUMP JUMPDEST PUSH1 0x0 PUSH2 0x49D PUSH2 0x2C8 JUMP JUMPDEST SWAP1 POP PUSH2 0x4A9 DUP3 DUP3 PUSH2 0x462 JUMP JUMPDEST SWAP2 SWAP1 POP JUMP JUMPDEST PUSH1 0x0 PUSH8 0xFFFFFFFFFFFFFFFF DUP3 GT ISZERO PUSH2 0x4C9 JUMPI PUSH2 0x4C8 PUSH2 0x433 JUMP JUMPDEST JUMPDEST PUSH2 0x4D2 DUP3 PUSH2 0x394 JUMP JUMPDEST SWAP1 POP PUSH1 0x20 DUP2 ADD SWAP1 POP SWAP2 SWAP1 POP JUMP JUMPDEST DUP3 DUP2 DUP4 CALLDATACOPY PUSH1 0x0 DUP4 DUP4 ADD MSTORE POP POP POP JUMP JUMPDEST PUSH1 0x0 PUSH2 0x501 PUSH2 0x4FC DUP5 PUSH2 0x4AE JUMP JUMPDEST PUSH2 0x493 JUMP JUMPDEST SWAP1 POP DUP3 DUP2 MSTORE PUSH1 0x20 DUP2 ADD DUP5 DUP5 DUP5 ADD GT ISZERO PUSH2 0x51D JUMPI PUSH2 0x51C PUSH2 0x42E JUMP JUMPDEST JUMPDEST PUSH2 0x528 DUP5 DUP3 DUP6 PUSH2 0x4DF JUMP JUMPDEST POP SWAP4 SWAP3 POP POP POP JUMP JUMPDEST PUSH1 0x0 DUP3 PUSH1 0x1F DUP4 ADD SLT PUSH2 0x545 JUMPI PUSH2 0x544 PUSH2 0x429 JUMP JUMPDEST JUMPDEST DUP2 CALLDATALOAD PUSH2 0x555 DUP5 DUP3 PUSH1 0x20 DUP7 ADD PUSH2 0x4EE JUMP JUMPDEST SWAP2 POP POP SWAP3 SWAP2 POP POP JUMP JUMPDEST PUSH1 0x0 DUP1 PUSH1 0x40 DUP4 DUP6 SUB SLT ISZERO PUSH2 0x575 JUMPI PUSH2 0x574 PUSH2 0x2D2 JUMP JUMPDEST JUMPDEST PUSH1 0x0 DUP4 ADD CALLDATALOAD PUSH8 0xFFFFFFFFFFFFFFFF DUP2 GT ISZERO PUSH2 0x593 JUMPI PUSH2 0x592 PUSH2 0x2D7 JUMP JUMPDEST JUMPDEST PUSH2 0x59F DUP6 DUP3 DUP7 ADD PUSH2 0x530 JUMP JUMPDEST SWAP3 POP POP PUSH1 0x20 PUSH2 0x5B0 DUP6 DUP3 DUP7 ADD PUSH2 0x2FD JUMP JUMPDEST SWAP2 POP POP SWAP3 POP SWAP3 SWAP1 POP JUMP JUMPDEST PUSH1 0x0 PUSH1 0x20 DUP3 DUP5 SUB SLT ISZERO PUSH2 0x5D0 JUMPI PUSH2 0x5CF PUSH2 0x2D2 JUMP JUMPDEST JUMPDEST PUSH1 0x0 DUP3 ADD CALLDATALOAD PUSH8 0xFFFFFFFFFFFFFFFF DUP2 GT ISZERO PUSH2 0x5EE JUMPI PUSH2 0x5ED PUSH2 0x2D7 JUMP JUMPDEST JUMPDEST PUSH2 0x5FA DUP5 DUP3 DUP6 ADD PUSH2 0x530 JUMP JUMPDEST SWAP2 POP POP SWAP3 SWAP2 POP POP JUMP JUMPDEST PUSH32 0x4E487B7100000000000000000000000000000000000000000000000000000000 PUSH1 0x0 MSTORE PUSH1 0x22 PUSH1 0x4 MSTORE PUSH1 0x24 PUSH1 0x0 REVERT JUMPDEST PUSH1 0x0 PUSH1 0x2 DUP3 DIV SWAP1 POP PUSH1 0x1 DUP3 AND DUP1 PUSH2 0x64A JUMPI PUSH1 0x7F DUP3 AND SWAP2 POP JUMPDEST PUSH1 0x20 DUP3 LT DUP2 SUB PUSH2 0x65D JUMPI PUSH2 0x65C PUSH2 0x603 JUMP JUMPDEST JUMPDEST POP SWAP2 SWAP1 POP JUMP JUMPDEST PUSH1 0x0 DUP2 SWAP1 POP DUP2 PUSH1 0x0 MSTORE PUSH1 0x20 PUSH1 0x0 KECCAK256 SWAP1 POP SWAP2 SWAP1 POP JUMP JUMPDEST PUSH1 0x0 PUSH1 0x20 PUSH1 0x1F DUP4 ADD DIV SWAP1 POP SWAP2 SWAP1 POP JUMP JUMPDEST PUSH1 0x0 DUP3 DUP3 SHL SWAP1 POP SWAP3 SWAP2 POP POP JUMP JUMPDEST PUSH1 0x0 PUSH1 0x8 DUP4 MUL PUSH2 0x6C5 PUSH32 0xFFFFFFFFFFFFFFFFFFFFFFFFFFFFFFFFFFFFFFFFFFFFFFFFFFFFFFFFFFFFFFFF DUP3 PUSH2 0x688 JUMP JUMPDEST PUSH2 0x6CF DUP7 DUP4 PUSH2 0x688 JUMP JUMPDEST SWAP6 POP DUP1 NOT DUP5 AND SWAP4 POP DUP1 DUP7 AND DUP5 OR SWAP3 POP POP POP SWAP4 SWAP3 POP POP POP JUMP JUMPDEST PUSH1 0x0 DUP2 SWAP1 POP SWAP2 SWAP1 POP JUMP JUMPDEST PUSH1 0x0 PUSH2 0x70C PUSH2 0x707 PUSH2 0x702 DUP5 PUSH2 0x2DC JUMP JUMPDEST PUSH2 0x6E7 JUMP JUMPDEST PUSH2 0x2DC JUMP JUMPDEST SWAP1 POP SWAP2 SWAP1 POP JUMP JUMPDEST PUSH1 0x0 DUP2 SWAP1 POP SWAP2 SWAP1 POP JUMP JUMPDEST PUSH2 0x726 DUP4 PUSH2 0x6F1 JUMP JUMPDEST PUSH2 0x73A PUSH2 0x732 DUP3 PUSH2 0x713 JUMP JUMPDEST DUP5 DUP5 SLOAD PUSH2 0x695 JUMP JUMPDEST DUP3 SSTORE POP POP POP POP JUMP JUMPDEST PUSH1 0x0 SWAP1 JUMP JUMPDEST PUSH2 0x74F PUSH2 0x742 JUMP JUMPDEST PUSH2 0x75A DUP2 DUP5 DUP5 PUSH2 0x71D JUMP JUMPDEST POP POP POP JUMP JUMPDEST JUMPDEST DUP2 DUP2 LT ISZERO PUSH2 0x77E JUMPI PUSH2 0x773 PUSH1 0x0 DUP3 PUSH2 0x747 JUMP JUMPDEST PUSH1 0x1 DUP2 ADD SWAP1 POP PUSH2 0x760 JUMP JUMPDEST POP POP JUMP JUMPDEST PUSH1 0x1F DUP3 GT ISZERO PUSH2 0x7C3 JUMPI PUSH2 0x794 DUP2 PUSH2 0x663 JUMP JUMPDEST PUSH2 0x79D DUP5 PUSH2 0x678 JUMP JUMPDEST DUP2 ADD PUSH1 0x20 DUP6 LT ISZERO PUSH2 0x7AC JUMPI DUP2 SWAP1 POP JUMPDEST PUSH2 0x7C0 PUSH2 0x7B8 DUP6 PUSH2 0x678 JUMP JUMPDEST DUP4 ADD DUP3 PUSH2 0x75F JUMP JUMPDEST POP POP JUMPDEST POP POP POP JUMP JUMPDEST PUSH1 0x0 DUP3 DUP3 SHR SWAP1 POP SWAP3 SWAP2 POP POP JUMP JUMPDEST PUSH1 0x0 PUSH2 0x7E6 PUSH1 0x0 NOT DUP5 PUSH1 0x8 MUL PUSH2 0x7C8 JUMP JUMPDEST NOT DUP1 DUP4 AND SWAP2 POP POP SWAP3 SWAP2 POP POP JUMP JUMPDEST PUSH1 0x0 PUSH2 0x7FF DUP4 DUP4 PUSH2 0x7D5 JUMP JUMPDEST SWAP2 POP DUP3 PUSH1 0x2 MUL DUP3 OR SWAP1 POP SWAP3 SWAP2 POP POP JUMP JUMPDEST PUSH2 0x818 DUP3 PUSH2 0x34E JUMP JUMPDEST PUSH8 0xFFFFFFFFFFFFFFFF DUP2 GT ISZERO PUSH2 0x831 JUMPI PUSH2 0x830 PUSH2 0x433 JUMP JUMPDEST JUMPDEST PUSH2 0x83B DUP3 SLOAD PUSH2 0x632 JUMP JUMPDEST PUSH2 0x846 DUP3 DUP3 DUP6 PUSH2 0x782 JUMP JUMPDEST PUSH1 0x0 PUSH1 0x20 SWAP1 POP PUSH1 0x1F DUP4 GT PUSH1 0x1 DUP2 EQ PUSH2 0x879 JUMPI PUSH1 0x0 DUP5 ISZERO PUSH2 0x867 JUMPI DUP3 DUP8 ADD MLOAD SWAP1 POP JUMPDEST PUSH2 0x871 DUP6 DUP3 PUSH2 0x7F3 JUMP JUMPDEST DUP7 SSTORE POP PUSH2 0x8D9 JUMP JUMPDEST PUSH1 0x1F NOT DUP5 AND PUSH2 0x887 DUP7 PUSH2 0x663 JUMP JUMPDEST PUSH1 0x0 JUMPDEST DUP3 DUP2 LT ISZERO PUSH2 0x8AF JUMPI DUP5 DUP10 ADD MLOAD DUP3 SSTORE PUSH1 0x1 DUP3 ADD SWAP2 POP PUSH1 0x20 DUP6 ADD SWAP5 POP PUSH1 0x20 DUP2 ADD SWAP1 POP PUSH2 0x88A JUMP JUMPDEST DUP7 DUP4 LT ISZERO PUSH2 0x8CC JUMPI DUP5 DUP10 ADD MLOAD PUSH2 0x8C8 PUSH1 0x1F DUP10 AND DUP3 PUSH2 0x7D5 JUMP JUMPDEST DUP4 SSTORE POP JUMPDEST PUSH1 0x1 PUSH1 0x2 DUP9 MUL ADD DUP9 SSTORE POP POP POP JUMPDEST POP POP POP POP POP POP JUMP JUMPDEST PUSH1 0x0 DUP2 SWAP1 POP SWAP3 SWAP2 POP POP JUMP JUMPDEST PUSH1 0x0 PUSH2 0x8F7 DUP3 PUSH2 0x34E JUMP JUMPDEST PUSH2 0x901 DUP2 DUP6 PUSH2 0x8E1 JUMP JUMPDEST SWAP4 POP PUSH2 0x911 DUP2 DUP6 PUSH1 0x20 DUP7 ADD PUSH2 0x36A JUMP JUMPDEST DUP1 DUP5 ADD SWAP2 POP POP SWAP3 SWAP2 POP POP JUMP JUMPDEST PUSH1 0x0 PUSH2 0x929 DUP3 DUP5 PUSH2 0x8EC JUMP JUMPDEST SWAP2 POP DUP2 SWAP1 POP SWAP3 SWAP2 POP POP JUMP INVALID LOG2 PUSH5 0x6970667358 0x22 SLT KECCAK256 INVALID EXTCODEHASH EXTCODECOPY SELFDESTRUCT GAS PUSH18 0x16452A7EFCB4BC3DE46D033F6529CEB2D892 0x4A DUP7 0xE4 JUMP SWAP15 0x2F SGT JUMPI PUSH5 0x736F6C6343 STOP ADDMOD SLT STOP CALLER LOG2 PUSH5 0x6970667358 0x22 SLT KECCAK256 0xD6 0xEE PUSH22 0x32A7A341BC45B2CD2CEF4F0119020EE501F45DE89F9C PUSH9 0xF571E06E7DF64736F PUSH13 0x63430008120033000000000000 "
		},
		"gasEstimates": {
			"creation": {
				"codeDepositCost": "619800",
				"executionCost": "651",
				"totalCost": "620451"
			},
			"external": {
				"createSimpleStorageContract()": "infinite",
				"listOfSimpleStorageContracts(uint256)": "infinite"
			}
		},
		"methodIdentifiers": {
			"createSimpleStorageContract()": "1dda6541",
			"listOfSimpleStorageContracts(uint256)": "f39f3035"
		}
	},
	"abi": [
		{
			"inputs": [],
			"name": "createSimpleStorageContract",
			"outputs": [],
			"stateMutability": "nonpayable",
			"type": "function"
		},
		{
			"inputs": [
				{
					"internalType": "uint256",
					"name": "",
					"type": "uint256"
				}
			],
			"name": "listOfSimpleStorageContracts",
			"outputs": [
				{
					"internalType": "contract SimpleStorage",
					"name": "",
					"type": "address"
				}
			],
			"stateMutability": "view",
			"type": "function"
		}
	]
}